{
  "_format": "hh-sol-artifact-1",
  "contractName": "EvidenceTracker",
  "sourceName": "contracts/EvidenceTracker.sol",
  "abi": [
    {
      "anonymous": false,
      "inputs": [
        {
          "indexed": false,
          "internalType": "uint256",
          "name": "id",
          "type": "uint256"
        },
        {
          "indexed": false,
          "internalType": "string",
          "name": "hash",
          "type": "string"
        },
        {
          "indexed": false,
          "internalType": "uint256",
          "name": "timestamp",
          "type": "uint256"
        },
        {
          "indexed": false,
          "internalType": "address",
          "name": "owner",
          "type": "address"
        }
      ],
      "name": "EvidenceAdded",
      "type": "event"
    },
    {
      "inputs": [
        {
          "internalType": "string",
          "name": "_hash",
          "type": "string"
        }
      ],
      "name": "addEvidence",
      "outputs": [],
      "stateMutability": "nonpayable",
      "type": "function"
    },
    {
      "inputs": [
        {
          "internalType": "uint256",
          "name": "",
          "type": "uint256"
        }
      ],
      "name": "evidences",
      "outputs": [
        {
          "internalType": "string",
          "name": "hash",
          "type": "string"
        },
        {
          "internalType": "uint256",
          "name": "timestamp",
          "type": "uint256"
        },
        {
          "internalType": "address",
          "name": "owner",
          "type": "address"
        }
      ],
      "stateMutability": "view",
      "type": "function"
    },
    {
      "inputs": [
        {
          "internalType": "uint256",
          "name": "_id",
          "type": "uint256"
        }
      ],
      "name": "getEvidence",
      "outputs": [
        {
          "internalType": "string",
          "name": "",
          "type": "string"
        },
        {
          "internalType": "uint256",
          "name": "",
          "type": "uint256"
        },
        {
          "internalType": "address",
          "name": "",
          "type": "address"
        }
      ],
      "stateMutability": "view",
      "type": "function"
    },
    {
      "inputs": [
        {
          "internalType": "string",
          "name": "",
          "type": "string"
        }
      ],
      "name": "hashExists",
      "outputs": [
        {
          "internalType": "bool",
          "name": "",
          "type": "bool"
        }
      ],
      "stateMutability": "view",
      "type": "function"
    }
  ],
  "bytecode": "0x6080604052348015600f57600080fd5b50610d0f8061001f6000396000f3fe608060405234801561001057600080fd5b506004361061004c5760003560e01c80632e4546cd1461005157806351a94a5f146100835780639871e5101461009f578063c956f143146100cf575b600080fd5b61006b6004803603810190610066919061055f565b610101565b60405161007a9392919061066c565b60405180910390f35b61009d600480360381019061009891906107df565b6101e3565b005b6100b960048036038101906100b491906107df565b61039b565b6040516100c69190610843565b60405180910390f35b6100e960048036038101906100e4919061055f565b6103d1565b6040516100f89392919061066c565b60405180910390f35b6000818154811061011157600080fd5b90600052602060002090600302016000915090508060000180546101349061088d565b80601f01602080910402602001604051908101604052809291908181526020018280546101609061088d565b80156101ad5780601f10610182576101008083540402835291602001916101ad565b820191906000526020600020905b81548152906001019060200180831161019057829003601f168201915b5050505050908060010154908060020160009054906101000a900473ffffffffffffffffffffffffffffffffffffffff16905083565b6001816040516101f391906108fa565b908152602001604051809103902060009054906101000a900460ff161561024f576040517f08c379a00000000000000000000000000000000000000000000000000000000081526004016102469061095d565b60405180910390fd5b600060405180606001604052808381526020014281526020013373ffffffffffffffffffffffffffffffffffffffff16815250908060018154018082558091505060019003906000526020600020906003020160009091909190915060008201518160000190816102c09190610b29565b506020820151816001015560408201518160020160006101000a81548173ffffffffffffffffffffffffffffffffffffffff021916908373ffffffffffffffffffffffffffffffffffffffff16021790555050506001808260405161032591906108fa565b908152602001604051809103902060006101000a81548160ff0219169083151502179055507f55700ecd1b559dc091f0dc78856c1334443bf9233fc0c47d76554ca7d0af5515600160008054905061037d9190610c2a565b8242336040516103909493929190610c5e565b60405180910390a150565b6001818051602081018201805184825260208301602085012081835280955050505050506000915054906101000a900460ff1681565b606060008060008085815481106103eb576103ea610caa565b5b90600052602060002090600302016040518060600160405290816000820180546104149061088d565b80601f01602080910402602001604051908101604052809291908181526020018280546104409061088d565b801561048d5780601f106104625761010080835404028352916020019161048d565b820191906000526020600020905b81548152906001019060200180831161047057829003601f168201915b50505050508152602001600182015481526020016002820160009054906101000a900473ffffffffffffffffffffffffffffffffffffffff1673ffffffffffffffffffffffffffffffffffffffff1673ffffffffffffffffffffffffffffffffffffffff16815250509050806000015181602001518260400151935093509350509193909250565b6000604051905090565b600080fd5b600080fd5b6000819050919050565b61053c81610529565b811461054757600080fd5b50565b60008135905061055981610533565b92915050565b6000602082840312156105755761057461051f565b5b60006105838482850161054a565b91505092915050565b600081519050919050565b600082825260208201905092915050565b60005b838110156105c65780820151818401526020810190506105ab565b60008484015250505050565b6000601f19601f8301169050919050565b60006105ee8261058c565b6105f88185610597565b93506106088185602086016105a8565b610611816105d2565b840191505092915050565b61062581610529565b82525050565b600073ffffffffffffffffffffffffffffffffffffffff82169050919050565b60006106568261062b565b9050919050565b6106668161064b565b82525050565b6000606082019050818103600083015261068681866105e3565b9050610695602083018561061c565b6106a2604083018461065d565b949350505050565b600080fd5b600080fd5b7f4e487b7100000000000000000000000000000000000000000000000000000000600052604160045260246000fd5b6106ec826105d2565b810181811067ffffffffffffffff8211171561070b5761070a6106b4565b5b80604052505050565b600061071e610515565b905061072a82826106e3565b919050565b600067ffffffffffffffff82111561074a576107496106b4565b5b610753826105d2565b9050602081019050919050565b82818337600083830152505050565b600061078261077d8461072f565b610714565b90508281526020810184848401111561079e5761079d6106af565b5b6107a9848285610760565b509392505050565b600082601f8301126107c6576107c56106aa565b5b81356107d684826020860161076f565b91505092915050565b6000602082840312156107f5576107f461051f565b5b600082013567ffffffffffffffff81111561081357610812610524565b5b61081f848285016107b1565b91505092915050565b60008115159050919050565b61083d81610828565b82525050565b60006020820190506108586000830184610834565b92915050565b7f4e487b7100000000000000000000000000000000000000000000000000000000600052602260045260246000fd5b600060028204905060018216806108a557607f821691505b6020821081036108b8576108b761085e565b5b50919050565b600081905092915050565b60006108d48261058c565b6108de81856108be565b93506108ee8185602086016105a8565b80840191505092915050565b600061090682846108c9565b915081905092915050565b7f45766964656e636520616c726561647920657869737473000000000000000000600082015250565b6000610947601783610597565b915061095282610911565b602082019050919050565b600060208201905081810360008301526109768161093a565b9050919050565b60008190508160005260206000209050919050565b60006020601f8301049050919050565b600082821b905092915050565b6000600883026109df7fffffffffffffffffffffffffffffffffffffffffffffffffffffffffffffffff826109a2565b6109e986836109a2565b95508019841693508086168417925050509392505050565b6000819050919050565b6000610a26610a21610a1c84610529565b610a01565b610529565b9050919050565b6000819050919050565b610a4083610a0b565b610a54610a4c82610a2d565b8484546109af565b825550505050565b600090565b610a69610a5c565b610a74818484610a37565b505050565b5b81811015610a9857610a8d600082610a61565b600181019050610a7a565b5050565b601f821115610add57610aae8161097d565b610ab784610992565b81016020851015610ac6578190505b610ada610ad285610992565b830182610a79565b50505b505050565b600082821c905092915050565b6000610b0060001984600802610ae2565b1980831691505092915050565b6000610b198383610aef565b9150826002028217905092915050565b610b328261058c565b67ffffffffffffffff811115610b4b57610b4a6106b4565b5b610b55825461088d565b610b60828285610a9c565b600060209050601f831160018114610b935760008415610b81578287015190505b610b8b8582610b0d565b865550610bf3565b601f198416610ba18661097d565b60005b82811015610bc957848901518255600182019150602085019450602081019050610ba4565b86831015610be65784890151610be2601f891682610aef565b8355505b6001600288020188555050505b505050505050565b7f4e487b7100000000000000000000000000000000000000000000000000000000600052601160045260246000fd5b6000610c3582610529565b9150610c4083610529565b9250828203905081811115610c5857610c57610bfb565b5b92915050565b6000608082019050610c73600083018761061c565b8181036020830152610c8581866105e3565b9050610c94604083018561061c565b610ca1606083018461065d565b95945050505050565b7f4e487b7100000000000000000000000000000000000000000000000000000000600052603260045260246000fdfea2646970667358221220579db1bbe721e9eea9fe2688b20c96ef8e43dfdbbc8fc4985dd6a57973b0ad4264736f6c634300081c0033",
  "linkReferences": {},
  "deployedLinkReferences": {}
}